:020000040001F9
:10800000C8280020D5800100EF800100F180010028
:108010000000000000000000000000000000000060
:10802000000000000000000000000000F3800100DC
:108030000000000000000000F5800100F780010052
:10804000F9800100F9800100B9830100F980010085
:10805000F98001000000000081810100F980010029
:1080600089830100A1830100F9800100F9800100EA
:10807000F9800100F9800100F9800100F980010018
:10808000F9800100F9800100F9800100F980010008
:10809000F9800100F9800100F9800100F9800100F8
:1080A000F9800100F98001000000000000000000DC
:1080B00000000000000000000000000000000000C0
:1080C0000348854600F04AF800480047A1890100AE
:1080D000C82800200321094802680A4302600848B2
:1080E00002680A4302600748804707480047FEE7E6
:1080F000FEE7FEE7FEE7FEE7FEE70000240500409E
:1081000054050040E9820100C180010030B50B46F2
:10811000014600202022012409E00D46D5409D4261
:1081200005D31D469540491B2546954040191546E7
:10813000521E002DF1DC30BD03460B439B0703D0DC
:1081400009E008C9121F08C0042AFAD203E00B781C
:108150000370401C491C521EF9D27047064C012581
:10816000064E05E0E36807CC2B430C3C98471034DF
:10817000B442F7D3FFF7A8FF789801009898010060
:10818000F0B50024FF268BB0013601252746059463
:10819000304601F003F8002807D0504840682842D4
:1081A00003D0304600F0F2FF2C43361D6D007F1CDB
:1081B000B6B2042FECD3FF257D35284600F0EEFF44
:1081C000002809D0284600F0E1FF6807044305AA0B
:1081D0000121002000F0C6FF414F200714D00126E6
:1081E000002526420CD03F48AA00111808690969E9
:1081F000C004C00E8903BA58890F002A00D09047E6
:1082000076006D1C042DECD3002C41DA0020069082
:10821000401E334D079020352E7D0027B406A40E56
:1082200070B2401C34D007A9204600F0F5FB0028AE
:108230002ED0B0090190204600F038FB810028487C
:1082400046580198002E02D0032802D00CE00328E3
:108250001ED1E30806A89C466207C15C520F0123A9
:10826000934019436346C15405200007A100081834
:10827000072109024018006805A98003800F0290B9
:10828000204600F0C9FB0028029803D0022803D042
:108290000BB0F0BD0328FBD10198032807D1029849
:1082A000022818D00221204600F04BFF0127002EA3
:1082B00002D020460199B047002FE9D06A4601213B
:1082C000002000F04FFF059900988842E0D005900B
:1082D00006980790A0E70321E5E70000006300404F
:1082E000442000200065004010B500F02DFB002860
:1082F00005D01F491D484860C8131E4988611E48A3
:10830000018CC9B201290BD1828C120708D1028DD0
:108310001206120F042A03D1828D1206120F0AD000
:10832000012921D1818C09071ED1018D0906090F70
:108330000A2904D007E0114A01219160F5E7828DF6
:108340001206120F05D00D290ED1808D0006000FE8
:108350000AD10B480168012904D00A49016001686B
:108360000129FCD1C021416110BD0000DFFF07C021
:1083700000050040006C0040C00F00F00006004007
:1083800000EC06407593000010B504220249034832
:1083900000F094FA10BD00007C2000200080004016
:1083A00010B504220249034800F088FA10BD00000D
:1083B000882000200090004010B50249024801F0DA
:1083C000A3F910BD942000200020004002E008C85E
:1083D000121F08C1002AFAD170477047002001E03F
:1083E00001C1121F002AFBD170470000BFF34F8F5D
:1083F00004490348C860BFF34F8F00BFFDE700008A
:108400000400FA0500ED00E00EB500210290009195
:108410006A4601910148FFF7E9FF0EBD01400000E7
:1084200070B5054640680B4E0179715C0124FF2947
:108430000DD0FE290CD000F073FD01466868064B94
:10844000007982009A58914202D1FF2131540024D0
:10845000204670BD0C200020B020002070B50446DE
:1084600000680D46008B642180B25043FFF74EFE3A
:1084700082B22946204600F001F870BDF8B50D46DD
:108480000446174600680C212E4623224E43125CF8
:108490003118022A01D00820F8BD4968B94206D136
:1084A000C16900293ED06068007988473AE02046DB
:1084B000FFF7B6FF002801D01120F8BD61681A4A05
:1084C0000979FE20505423683A469E197768204661
:1084D0002946002F02D09E69B7420AD3002A02D053
:1084E0009B69934202D800F021FF0BE000F058FF97
:1084F00008E0002A01D0964202D800F0DBFF01E03C
:1085000001F05EF82068C06900280BD06168064A57
:10851000097902204900D21C891848550221606857
:1085200000F034FD0020F8BD0C200020FFB581B024
:1085300006460768029D0C2045432320C05DEC19C8
:10854000002802D0082005B0F0BD0020606004982B
:10855000A0722C4800680090284631680A30085CF8
:10856000002808D0002069464870039800F0C2FA3D
:10857000002816D101E00120F5E703987851012782
:1085800003983D46854004991F48002901D0C560E5
:1085900000E0856000256019083000F051FB0028DC
:1085A00001D00420CFE76D1CEDB2022DF3D3207A69
:1085B00000F094FB607A00F091FB206800F0E6FA8E
:1085C00005467068029900F0D1FC237A01462A46DC
:1085D000184600F063FB206800F0D8FA0546022137
:1085E000706800F0C3FC0146607A2A4600F056FB32
:1085F000E7727168054A0979002049008A180299D2
:108600005054A0E76C980100000500500F20002096
:10861000F8B50768054600246A68204612790C21DF
:1086200048435300174AC61900219A181155F17A88
:1086300000290DD029680A30085C002820D00021CC
:10864000306800F0C5FA306800F0AAFA00207060C7
:10865000641C022CE0D369680A4AFF200979D21E03
:10866000505468680121006800F0B0FD686800F0AF
:1086700064FC686800F0A8FC02202037F870F8BDA0
:108680000121DDE70F200020F7B588B00E00054678
:1086900009D02C68204620300690C078002804D0ED
:1086A00008200BB0F0BD0B20FBE700F02DFC0028EC
:1086B00003D0852801D00420F3E700F013FA002846
:1086C00005D100F0E1F9002801D00320E9E7069880
:1086D000FF210170069841700698817000200746BE
:1086E0000C2141430B19DF72FF221A725A720022C9
:1086F000D243401CC0B262500228F1D3204622303F
:1087000000F096FB002806D10027E019203000F089
:1087100097FA002803D0284600F08CFDCBE77F1C99
:10872000FFB2022FF1D30027B8003258501C12D0EC
:10873000F019037A39462846FFF7F8FE049000281E
:1087400004D0284600F076FD0498AAE700223946B6
:108750002846FFF793FE7F1CFFB2022FE4D30020D0
:108760000922244B316901E04908401C994201D992
:108770009042F9D3204A5168926802920191694669
:10878000087168681D4A0079029001A9686800F0C4
:1087900041FC070004D0284600F04CFD384680E735
:1087A00068680522006812028018316900690E01AC
:1087B000C640A661686800F0C0FB0127009704234B
:1087C00032460221686800F00DFC0221686800F062
:1087D000D4FB0A98E061686809490079094A800079
:1087E0000D506968FF20097950540698C770002021
:1087F00057E70000FF0F00006C980100D5920100C0
:10880000BC2000200C20002000B500F005F800BDC1
:1088100000B500F009F800BD72B602480168491CB5
:10882000016070471820002003490868401E086056
:1088300000D162B670470000182000200003000F2E
:1088400001D0002070470120704700000022D24371
:10885000830004490428CA5002D308182030027447
:108860007047000044200020F0B50025ED43002AA9
:1088700002D00023042601E0042305260A4C04E06C
:108880009F00E7597F1C04D05B1CB342F8D32846F5
:10889000F0BD5DB2261835759E00A151002AF6D1B3
:1088A000E11820310874F2E7442000200249091839
:1088B000142008567047000044200020F7B500251A
:1088C000164604462F4616E0A80001210904A940D7
:1088D000FF3041302258002A0BD003221202A21886
:1088E00052680A4205D02750019A019912684968D6
:1088F00090476D1CEDB2B542E6D3FEBD012181402B
:1089000003484068014201D00120704700207047B1
:10891000042000200121814003484078014201D019
:10892000012070470020704704200020014610B548
:1089300001208840FFF782FF10BD01218140080718
:1089400000D00120704700001048018CC9B20129F5
:1089500017D1818C090714D1018D09060A0F03D1A3
:10896000828D1206120F0ED0090F012903D1828DBC
:108970001206120F07D0032903D1808D0006000FC5
:1089800001D000207047012070470000C00F00F0A8
:10899000012181400804000C00D001207047000034
:1089A0008AB01422194905A8FFF7C6FB17491422FB
:1089B00014316846FFF7C0FB012069464877134829
:1089C000134A0838FFF760FE002801D0FFF71CFDAE
:1089D0000E480838FFF71CFE0E4D002614242E709A
:1089E0000A48224600210838FFF738FD1128F7D041
:1089F00028780028FCD00548224601210838FFF7D6
:108A00002DFD0028EAD0FFF7FFFCE7E740980100C2
:108A1000C992010000200020C20843075B0F01201B
:108A2000895C9840084070478207D30EFF229A4025
:108A30008907090E10B5994000280BDA03071B0FB0
:108A4000083B9C080C4BA400E318DC6994430C43DE
:108A5000DC6107E08408094BA400E4182368934311
:108A60000B432360C106C90E0120884004490860F9
:108A70000449086010BD000000ED00E000E400E0E3
:108A800080E200E000E100E070B5144D687D002850
:108A900001D0082070BD114900202039421E0B185A
:108AA000401CC0B21A752028F9D300242046FFF7D5
:108AB000CDFE641CE4B2052CF8D303210620FFF799
:108AC000B3FFFF207D3000F061FB01200449C007A7
:108AD000486001206875002070BD000064200020FF
:108AE000006300400248407D002800D0012070470C
:108AF00064200020FEB5044620480D4600191421CC
:108B000041560026491C01D0082633E0A9780029E7
:108B10001DD0012200212046FFF7A6FE411C14D0E3
:108B2000830017482A78181869780369154F3B4065
:108B300003610369E706FF0C9207920BC907C90A94
:108B40003B430A431343036104E0042612E001217E
:108B5000C94301756A780120A0400B49012A0BD056
:108B6000C860002100910B46012201912046114668
:108B700000F0CAFA3046FEBD8860F2E744200020CB
:108B800000650040FFE0ECFF0005005010B5FFF766
:108B90008DFE80060149000E401810BD00600040A7
:108BA000094909181420085681000848091808695D
:108BB000032210431F22120202430A6100BF00BFBA
:108BC00000BF08617047000044200020006500409D
:108BD000002900D00121074A1218142010568200E3
:108BE00005481218106901231B059843090508431D
:108BF00010617047442000200065004010B5044615
:108C000000F000FB00280DD02046FFF74FFEC0B259
:108C1000FFF71CFE2046FFF749FE074A00218000AF
:108C20008018016105490020C043091908752046D4
:108C300000F07EFA10BD00000065004044200020D6
:108C4000F1B50427134E00240020FFF7DDFD0125B8
:108C5000A540354204D02046FFF750FE00280BD037
:108C60000020FFF7D5FD002F04D0641CAE43E4B212
:108C7000002EE9D13846F8BD074901204A68A040D6
:108C8000104348600098002704703846FFF7C0FD85
:108C9000F0E70000FFFF000004200020F8B51446B4
:108CA0000D00074612D0002C10D00026FFF770FEF2
:108CB00000280DD03846FFF721FE00280AD00648CC
:108CC000F9000818056144613046F8BD0E20F8BD72
:108CD0000726F9E70826F7E700F5014070B50546D5
:108CE0000024FFF723FE00280FD02846FFF750FE90
:108CF000002804D02846FFF701FE002807D00120F5
:108D00000449A8408860204670BD0724FBE708247A
:108D1000F9E7000000F5014070B505460024FFF7B3
:108D200005FE00280FD02846FFF732FE002804D0A9
:108D30002846FFF7E3FD002807D001200449A8409A
:108D40004860204670BD0724FBE70824F9E70000CF
:108D500000F5014070B504460026FFF719FE002813
:108D60000FD001250848A54085600020FFF74CFD85
:108D700006484168A94341600020FFF749FD30469D
:108D800070BD0726FBE7000000F50140042000202D
:108D900070B506460D4600240846FFF7CEFD0028B4
:108DA00019D02846FFF7B6FD002812D03046FFF74D
:108DB00045FD00280FD00020FFF726FD0748A90039
:108DC00008180168314301600020FFF721FD2046AB
:108DD00070BD0824FBE70724F9E7000000F8014014
:108DE00070B506460D4600240846FFF7A6FD00288C
:108DF00019D02846FFF78EFD002812D03046FFF725
:108E00001DFD00280FD00020FFF7FEFC0748A90039
:108E100008180168B14301600020FFF7F9FC204603
:108E200070BD0824FBE70724F9E7000000F80140C3
:108E3000F1B504270F2600240020FFF7E5FC0125EB
:108E4000A540354204D02046FFF764FD00280BD032
:108E50000020FFF7DDFC002F04D0641CAE43E4B219
:108E6000002EE9D13846F8BD064901204A78A040D5
:108E7000104348700098002704703846FFF7C8FC7C
:108E8000F0E700000420002070B505460024FFF73D
:108E900054FD00280BD02846FFF73CFD002808D0E1
:108EA000054A0120E90089180860204670BD0724A2
:108EB000FBE70824F9E7000000F0014070B5044624
:108EC0000025FFF73AFD002800D107252046FFF7CF
:108ED00021FD002811D00A490126E0004018466013
:108EE0000020FFF791FC0748A6404178B14341704C
:108EF0000020FFF78DFC284670BD0825FBE7000029
:108F000000F001400420002004480178002901D02D
:108F10008520704701210170002070470420002047
:108F2000152200688900920189184058704702682C
:108F300088004030C0B21018704700680121C1603D
:108F4000704770B5012424048C400326056836025E
:108F5000AD19002B01D06C6000E0AC6000688900A6
:108F60000818052109024018026470BD02688800D3
:108F7000FF30413080B210187047026801200004B1
:108F80008840032109025118886070478A0010B593
:108F9000FF324132036892B200249C5002680120E3
:108FA00000048840032109025118486010BD0000E8
:108FB00002680121116100790C225043014A801896
:108FC000017270477C200020016801220A6000794C
:108FD0000C225043024A022180180172704700009F
:108FE0007C200020F0B5FF25023504688D40FF3459
:108FF000FF340234059E2768AF4327600468FF34BE
:10900000FF34023425681D4325603346FFF799FF7E
:10901000F0BD000070B504460D4600790C214843B0
:1090200022494618307A002801D0082070BD002A55
:1090300005D03260686870600020034608E00720B1
:1090400070BD8100FF31226841315350401CC0B2D5
:1090500061798142F5D82068E978000B40B2FFF7CA
:10906000E3FC05202168000209186A784B68D207E2
:109070005B085B00D20F13434B602168AA78091884
:109080008B6892079B089B00920F13438B602268AA
:10909000297810180269090712091201090F0A43F9
:1090A000026101203072002070BD00007C20002091
:1090B00030B503460068C103C90E0120884010493D
:1090C000086019680020FF31C043FF3102310A688F
:1090D00000240C600322196812028918886018792C
:1090E0000C21084D48434019007A022802D1184645
:1090F000FFF75EFF18790C2148434019047230BD18
:1091000080E100E07C20002070B552000A43990005
:10911000049D0A432902059E0A43310405240A439B
:10912000240780000721001909024018026070BD61
:109130001CB5002100910B4601220191FFF7E4FFCD
:109140001CBD05221207800082180720000210189B
:10915000026803231B049A430260026809040A435D
:109160000260704738B5084B05241B680093240241
:109170006B46411805E085005D592D192D69401C8D
:1091800020C28142F7D838BD6898010002494018D2
:109190000021016070470000006000400349401852
:1091A0000068012800D000207047000000600040E7
:1091B0004058002800D00120704703221202801876
:1091C0004068084000D0012070470000074A9042E4
:1091D00001D1074803E0074A904202D10648C16026
:1091E0007047064A9042FBD10548F8E700800040EE
:1091F000008C004000900040009C004000A0004017
:1092000000AC00400449081814214156042901D239
:1092100001207047002070474420002010B50068EE
:109220000C2251430C18207AFFF758FD607AFFF7A3
:1092300055FD10BDF1B582B00298002405682819CB
:1092400020300078FF2801D0FFF784FD641CE4B2D1
:10925000022CF4D32220405DFF2801D0FFF72EFE20
:10926000002420460C214843002647190090B819D5
:109270000190007AFF2804D0FFF76CFD0199FF20D0
:109280000872761CF6B2022EF1D300982858411CC1
:1092900005D0FFF7B3FC00210098C94329500020F6
:1092A000641CE4B2F872022CDBD302984068FFF72A
:1092B000FFFEFEBD10B5046820342078FFF70EFDD8
:1092C0006078FFF70BFD10BD014901200870704761
:1092D00000200020F8B50D4612480127002449005F
:1092E0000E18305D002806D0305D401E3055305DD0
:1092F00000280ED00027641CE4B2022CF1D3002F0A
:1093000006D00948A900405802214068FFF735FE01
:10931000F8BD0548A90040580068C169284688473B
:10932000E9E700000F200020BC200020FEB50C461D
:1093300001680546009120460C21484300990190A0
:10934000471816462846FFF7B5FF21462846FFF77F
:1093500065FF01980A30002E09D000998969B14251
:109360000FD88EB22968085C002804D005E029686F
:10937000085C002801D0002100E001213868FFF7D7
:1093800027FC0023324621466868FFF7DAFD7E603D
:109390006968024A0979FF205054FEBD0C20002064
:1093A000F7B582B00446056803980C214843471975
:1093B0002035AE78039800902046FFF77BFF2046CB
:1093C0000399FFF72BFF00236068049A0099FFF7C9
:1093D000B8FD31463348FFF703FD397A01200246D4
:1093E0008A40797A884010433146FFF7D1FC79688A
:1093F0002D48002933D0F1000E1802216068FFF7D4
:10940000B5FD014628783246FFF748FC00230122CB
:1094100003216068FFF795FD6068002100798200F4
:109420002248815003216068FFF781FD0646022132
:109430006068FFF79BFD014668783246FFF72EFC17
:109440002878FFF769FC6878FFF766FC0498786075
:109450006168174A09790320505405B0F0BDF10046
:109460000E1860680399FFF781FD0146287832469F
:10947000FFF714FC00231A4603216068FFF761FD23
:1094800060680399FFF74CFD616809798A00074914
:10949000885003216068FFF74AFD0646606803991B
:1094A000C7E70000FFFFF0FF00F00140B020002000
:1094B0000C200020F7B5076882B0044603980C2101
:1094C0004843C2193D4620350092AE782046FFF74A
:1094D000F1FE31463648FFF783FC009A0121127AEB
:1094E00008469040009A527A914008433146FFF76F
:1094F0004FFC04992F48002937D0398B89B2049149
:10950000F1000E1802216068FFF730FD014628784F
:109510003246FFF7C3FB0023012203216068FFF7F7
:1095200010FD6068002100798200234881500321EA
:109530006068FFF7FCFC064602216068FFF716FD35
:10954000014668783246FFF7A9FB2878FFF7E4FB6D
:109550006878FFF7E1FB0099049848606168174A52
:1095600009790320505405B0F0BDF1000E18606871
:109570000399FFF7FBFC014628783246FFF78EFB84
:1095800000231A4603216068FFF7DBFC606803993B
:10959000FFF7C6FC616809798A00074988500321F2
:1095A0006068FFF7C4FC064660680399C6E70000E0
:1095B000FFFFF0FF04F00140B02000200C2000204D
:1095C000F7B582B00546046803980C214843071993
:1095D0002034A6782846FFF76DFE31462B48FFF76A
:1095E000FFFB2278012108469040627891400843B1
:1095F0003146FFF7CDFB68680399FFF798FC0090B0
:1096000003216868FFF7B2FC01462078009AFFF753
:1096100045FB6868052100680902401800690006DA
:10962000000E13D0002104980818796888420FD2E0
:109630003868FFF7ABFA009003216868FFF796FCE3
:1096400001466078009AFFF729FB07E00121EAE76D
:109650006278012031469040FFF7C2FB04987860A1
:10966000002368680321049AFFF76BFC3046FFF77C
:109670000BFC6968064A09790498890050506968AA
:10968000044A09790398505405B0F0BDFFFFF0FF7C
:10969000B02000200C20002030B5FF220523CD7D16
:1096A000002409321B02C318002D8450986905D08C
:1096B0004B7ECA68D054487E401C487630BD1FB5EA
:1096C00001246B461C701972019206C868469047C7
:1096D0001FBDFF221D32002383508B8A8A68D25C13
:1096E0008B8A5B1C8B82052109024018C26170477E
:1096F0001FB500226B461A7019728168019182753C
:1097000006C8684690471FBDF0B50C46012185B0DC
:1097100005464902FFF751FD032109026F18002693
:10972000002826D0FF2125312846FFF741FD0028DB
:109730001FD0FF2025302E5081208000B860A07EF1
:10974000002801D1012068600221684601700920CB
:10975000C0012918086808600390E17D684601721D
:10976000E0680190E675267606CC6846083C90478E
:109770002DE004212846FFF720FD002827D0FF21F7
:1097800009312846FFF714FD002820D0214628463D
:10979000FFF782FFE07D617E884218D1207E00289D
:1097A00007D0617EE268E0752069E0602676667623
:1097B0000AE0A07E002801D101206860812080009D
:1097C000B860E675617EE2682046FFF778FFFF2704
:1097D0001D3739462846FFF7EBFC00280FD0A08A3A
:1097E000A17D884204D221462846FFF772FF06E099
:1097F000EE51A17D002902D02046FFF779FFFF2717
:10980000453739462846FFF7D3FC00280ED0EE51E5
:10981000A07E002801D001202860E07D002805D02E
:10982000E675617EE2682046FFF749FF05B0F0BDAE
:1098300000A0004002040000202000203098010019
:1098400015000000160000000000000002000000EB
:109850008813000015000000FFFFFFFF000000005C
:109860000100000088130000000000500300010008
:109870000000000300000000989801000020002074
:1098800020000000CC830100B898010020200020B7
:10989000A8080000DC8301000000000000000000B8
:1098A00000000000000000000000000000000000B8
:0898B000000000000024F40098
:04000005000180C1B5
:00000001FF
